:020000040000FA
:10000000680200200D030000150300001703000024
:10001000190300001B0300001D0300000000000086
:100020000000000000000000000000001F030000AE
:10003000210300000000000023030000A9050000C8
:1000400027030000290300002B0300002D030000FC
:100050002F030000310300003303000035030000CC
:1000600037030000390300003B0300003D0300009C
:100070003F0300004103000043030000450300006C
:1000800047030000490300004B0300004D0300003C
:100090004F0300005103000053030000550300000C
:1000A00057030000590300005B0300005D030000DC
:1000B0005F030000610300006303000065030000AC
:1000C00067030000690300006B0300006D0300007C
:1000D0006F0300007103000073030000750300004C
:1000E0007703000079030000000000007B0300009C
:1000F0007D0300007F0300008103000083030000F4
:100100008503000087030000890300008B030000C3
:1001100000000000000000008D0300008F030000BD
:100120009103000093030000950300009703000073
:10013000990300009B0300009D0300009F03000043
:1001400000000000000000000000000000000000AF
:10015000A1030000A3030000A5030000A703000003
:10016000000000000000000000000000000000008F
:10017000000000000000000000000000000000007F
:10018000000000000000000000000000000000006F
:10019000000000000000000000000000000000005F
:1001A000000000000000000000000000000000004F
:1001B000A9030000AB030000AD030000AF03000083
:1001C000B1030000B3030000B5030000B703000053
:1001D000B9030000BB030000BD030000BF03000023
:1001E000C1030000C3030000C503000000000000BD
:1001F00000000000C7030000C9030000CB0300009B
:10020000CD030000CF03000000000000000000004C
:10021000D1030000D3030000D5030000D703000082
:10022000D9030000DB030000DD030000DF03000052
:10023000E1030000E3030000E5030000E703000022
:10024000E9030000EB030000ED030000EF030000F2
:10025000F1030000F3030000F5030000F7030000C2
:10026000F9030000FB030000FD03000000F002F8AA
:1002700000F03CF80AA090E8000C82448344AAF104
:100280000107DA4501D100F031F8AFF2090EBAE802
:100290000F0013F0010F18BFFB1A43F001031847BA
:1002A0006C0500008C050000103A24BF78C878C1A6
:1002B000FAD8520724BF30C830C144BF04680C606C
:1002C000704700000023002400250026103A28BFB4
:1002D00078C1FBD8520728BF30C148BF0B607047B8
:1002E0001FB500F08DFA1FBD10B510BD00F09BF8D2
:1002F0001146FFF7F5FF00F01FFA00F0B9F803B45C
:10030000FFF7F2FF03BC00F0C1F800003F48804750
:100310003F480047FEE7FEE7FEE7FEE7FEE7FEE7B1
:10032000FEE7FEE7FEE7FEE7FEE7FEE7FEE7FEE7A5
:10033000FEE7FEE7FEE7FEE7FEE7FEE7FEE7FEE795
:10034000FEE7FEE7FEE7FEE7FEE7FEE7FEE7FEE785
:10035000FEE7FEE7FEE7FEE7FEE7FEE7FEE7FEE775
:10036000FEE7FEE7FEE7FEE7FEE7FEE7FEE7FEE765
:10037000FEE7FEE7FEE7FEE7FEE7FEE7FEE7FEE755
:10038000FEE7FEE7FEE7FEE7FEE7FEE7FEE7FEE745
:10039000FEE7FEE7FEE7FEE7FEE7FEE7FEE7FEE735
:1003A000FEE7FEE7FEE7FEE7FEE7FEE7FEE7FEE725
:1003B000FEE7FEE7FEE7FEE7FEE7FEE7FEE7FEE715
:1003C000FEE7FEE7FEE7FEE7FEE7FEE7FEE7FEE705
:1003D000FEE7FEE7FEE7FEE7FEE7FEE7FEE7FEE7F5
:1003E000FEE7FEE7FEE7FEE7FEE7FEE7FEE7FEE7E5
:1003F000FEE7FEE7FEE7FEE7FEE7FEE7FEE70000BA
:1004000004480549034A054B704700009D0600005B
:100410006D020000680000206802002068000020D3
:10042000704770477047754600F02CF8AE460500DF
:100430006946534620F00700854618B020B5FFF7FF
:10044000DFFFBDE820404FF000064FF000074FF0FF
:1004500000084FF0000B21F00701AC46ACE8C009E2
:10046000ACE8C009ACE8C009ACE8C0098D467047EB
:1004700010B50446AFF300802046BDE81040FFF7FA
:100480003EBF0000004870470800002001491820C6
:10049000ABBEFEE726000200704700001B48006864
:1004A00040F020001949086000BF00BF18481949F2
:1004B00008601F20091D0860081D006820F01F004B
:1004C000091D086000201449086012490C310860B9
:1004D00011482038006840F00E000F4920390860AC
:1004E0000846006820F0110008600A4810380068CB
:1004F00040F011000749103908600648001F0068E5
:1005000040F01F000349091F0860704708E60F40CC
:100510004B434F4C205502402054024001780E2995
:1005200003DA0178891C017001E0002101706FF08D
:100530000E01014A11607047FC53024010B502469B
:10054000012000FA01F3D2F8FC030340D2F8FC03C7
:1005500001248C40204008B9002010BD0120FCE798
:10056000034909684140034AC2F8FC137047000080
:10057000FC53024000500240014600200A78012A44
:1005800003D14A780AB9022005E00A781AB94A78F4
:10059000012A00D1012070470170417070474278F4
:1005A000027041707047000010B539480088401C47
:1005B0003749088037480078072862D2DFE800F022
:1005C0000412202D3A475400314800884FF47A71C4
:1005D00090FBF1F201FB120018B92F480078FFF7E9
:1005E000BFFF52E02A4800884FF4FA7190FBF1F205
:1005F00001FB120018B928480078FFF7B1FF44E06A
:1006000023480088C82190FBF1F201FB120018B9C1
:1006100021480078FFF7A4FF37E01D4800886421D7
:1006200090FBF1F201FB120018B91B480078FFF7AC
:1006300097FF2AE016480088322190FBF1F201FB77
:10064000120018B914480078FFF78AFF1DE010481F
:100650000088142190FBF1F201FB120018B90E483A
:100660000078FFF77DFF10E0094800880A2190FB21
:10067000F1F201FB120018B907480078FFF770FF8C
:1006800003E000200349087000BF00BF10BD000058
:100690000200002000000020010000201B49096822
:1006A00041F47001194A116019491A4A11671A492F
:1006B00011661A4911661A491167002000E0401CB2
:1006C000B0F57A7FFBD31749124A116616491167B4
:1006D000002000E0401CB0F57A7FFBD313490D4A9F
:1006E000116600BF0B49096D01F040014029F9D1A5
:1006F0000F49084A11660F491167002000E0401CAD
:1007000042F210718842FAD37047000088ED00E091
:100710001028800700E00F40D13A8E07422D90014B
:1007200000288081420D900100088081420DD00197
:100730004205D001000080811CB5012101A8FFF70E
:100740002BFF01216846FFF727FFFFF7A7FE26488A
:1007500000684FF47A72B0FBF2F1481EB0F1807F6E
:1007600000D31BE0481E4FF0E022506150170722D3
:10077000002804DB53071C0E1C4B1C5406E05307D7
:100780001D0E1B4B00F00F04241F1D5500BF002041
:100790004FF0E02290610720106100BF23E00421A8
:1007A0001448FFF7CBFE0446214601A8FFF7F7FEE9
:1007B00000211048FFF7C2FE044621466846FFF7B5
:1007C000EEFE01A8FFF7D8FE022802D10A48FFF783
:1007D000A5FE6846FFF7D0FE022804D1074800783E
:1007E000401C06490870DAE70400002000E400E03D
:1007F00018ED00E000500240010000200000002041
:100800004FF04070E1EE100A704700002C08000025
:100810000000002008000000A802000034080000CA
:100820000800002060020000C40200000002000076
:0408300080F0FA0258
:040000050000030DE7
:00000001FF
