:020000040000FA
:10000000780200200D030000150300001703000014
:10001000190300001B0300001D0300000000000086
:100020000000000000000000000000001F030000AE
:1000300021030000000000002303000089050000E8
:1000400027030000290300002B0300002D030000FC
:100050002F030000310300003303000035030000CC
:1000600037030000390300003B0300003D0300009C
:100070003F0300004103000043030000450300006C
:1000800047030000490300004B0300004D0300003C
:100090004F0300005103000053030000550300000C
:1000A00057030000590300005B0300005D030000DC
:1000B0005F030000610300006303000065030000AC
:1000C00067030000690300006B0300006D0300007C
:1000D0006F0300007103000073030000750300004C
:1000E0007703000079030000000000007B0300009C
:1000F0007D0300007F0300008103000083030000F4
:100100008503000087030000890300008B030000C3
:1001100000000000000000008D0300008F030000BD
:100120009103000093030000950300009703000073
:10013000990300009B0300009D0300009F03000043
:1001400000000000000000000000000000000000AF
:10015000A1030000A3030000A5030000A703000003
:10016000000000000000000000000000000000008F
:10017000000000000000000000000000000000007F
:10018000000000000000000000000000000000006F
:10019000000000000000000000000000000000005F
:1001A000000000000000000000000000000000004F
:1001B000A9030000AB030000AD030000AF03000083
:1001C000B1030000B3030000B5030000B703000053
:1001D000B9030000BB030000BD030000BF03000023
:1001E000C1030000C3030000C503000000000000BD
:1001F00000000000C7030000C9030000CB0300009B
:10020000CD030000CF03000000000000000000004C
:10021000D1030000D3030000D5030000D703000082
:10022000D9030000DB030000DD030000DF03000052
:10023000E1030000E3030000E5030000E703000022
:10024000E9030000EB030000ED030000EF030000F2
:10025000F1030000F3030000F5030000F7030000C2
:10026000F9030000FB030000FD03000000F002F8AA
:1002700000F03CF80AA090E8000C82448344AAF104
:100280000107DA4501D100F031F8AFF2090EBAE802
:100290000F0013F0010F18BFFB1A43F001031847BA
:1002A0006C0600008C060000103A24BF78C878C1A4
:1002B000FAD8520724BF30C830C144BF04680C606C
:1002C000704700000023002400250026103A28BFB4
:1002D00078C1FBD8520728BF30C148BF0B607047B8
:1002E0001FB500F00DFB1FBD10B510BD00F09BF851
:1002F0001146FFF7F5FF00F06FFA00F0B9F803B40C
:10030000FFF7F2FF03BC00F0C1F800003F48804750
:100310003F480047FEE7FEE7FEE7FEE7FEE7FEE7B1
:10032000FEE7FEE7FEE7FEE7FEE7FEE7FEE7FEE7A5
:10033000FEE7FEE7FEE7FEE7FEE7FEE7FEE7FEE795
:10034000FEE7FEE7FEE7FEE7FEE7FEE7FEE7FEE785
:10035000FEE7FEE7FEE7FEE7FEE7FEE7FEE7FEE775
:10036000FEE7FEE7FEE7FEE7FEE7FEE7FEE7FEE765
:10037000FEE7FEE7FEE7FEE7FEE7FEE7FEE7FEE755
:10038000FEE7FEE7FEE7FEE7FEE7FEE7FEE7FEE745
:10039000FEE7FEE7FEE7FEE7FEE7FEE7FEE7FEE735
:1003A000FEE7FEE7FEE7FEE7FEE7FEE7FEE7FEE725
:1003B000FEE7FEE7FEE7FEE7FEE7FEE7FEE7FEE715
:1003C000FEE7FEE7FEE7FEE7FEE7FEE7FEE7FEE705
:1003D000FEE7FEE7FEE7FEE7FEE7FEE7FEE7FEE7F5
:1003E000FEE7FEE7FEE7FEE7FEE7FEE7FEE7FEE7E5
:1003F000FEE7FEE7FEE7FEE7FEE7FEE7FEE70000BA
:1004000004480549034A054B704700007D0600007B
:100410006D020000780000207802002078000020A3
:10042000704770477047754600F02CF8AE460500DF
:100430006946534620F00700854618B020B5FFF7FF
:10044000DFFFBDE820404FF000064FF000074FF0FF
:1004500000084FF0000B21F00701AC46ACE8C009E2
:10046000ACE8C009ACE8C009ACE8C0098D467047EB
:1004700010B50446AFF300802046BDE81040FFF7FA
:100480003EBF0000004870471800002001491820B6
:10049000ABBEFEE726000200704700001B48006864
:1004A00040F020001949086000BF00BF18481949F2
:1004B00008601F20091D0860081D006820F01F004B
:1004C000091D086000201449086012490C310860B9
:1004D00011482038006840F00E000F4920390860AC
:1004E0000846006820F0110008600A4810380068CB
:1004F00040F011000749103908600648001F0068E5
:1005000040F01F000349091F0860704708E60F40CC
:100510004B434F4C205502402054024010B5024638
:10052000012000FA01F3D2F8FC030340D2F8FC03E7
:1005300001248C40204008B9002010BD0120FCE7B8
:10054000034909684140034AC2F8FC1370470000A0
:10055000FC53024000500240014600200A78012A64
:1005600003D14A780AB9022005E00A781AB94A7814
:10057000012A00D101207047017041707047427814
:10058000027041707047000010B539480088401C67
:100590003749088037480078072862D2DFE800F042
:1005A0000412202D3A475400314800884FF47A71E4
:1005B00090FBF1F201FB120018B92F480078FFF709
:1005C000BFFF52E02A4800884FF4FA7190FBF1F225
:1005D00001FB120018B928480078FFF7B1FF44E08A
:1005E00023480088C82190FBF1F201FB120018B9E2
:1005F00021480078FFF7A4FF37E01D4800886421F8
:1006000090FBF1F201FB120018B91B480078FFF7CC
:1006100097FF2AE016480088322190FBF1F201FB97
:10062000120018B914480078FFF78AFF1DE010483F
:100630000088142190FBF1F201FB120018B90E485A
:100640000078FFF77DFF10E0094800880A2190FB41
:10065000F1F201FB120018B907480078FFF770FFAC
:1006600003E000200349087000BF00BF10BD000078
:100670000400002000000020010000201B49096840
:1006800041F47001194A116019491A4A11671A494F
:1006900011661A4911661A491167002000E0401CD2
:1006A000B0F57A7FFBD31749124A116614491167D6
:1006B000002000E0401CB0F57A7FFBD312490D4AC0
:1006C000116600BF0B49096D01F040014029F9D1C5
:1006D0000E49084A11660E491167002000E0401CCF
:1006E00042F210718842FAD37047000088ED00E0B2
:1006F0001028800700E00F40D13A8E07422D0002FB
:1007000000288001420D0002420D400242054002D5
:10071000002080011F48006840F001001D4908606A
:100720001C481038006840F001001A491039086070
:100730001948006B20F0010017490863082048623F
:100740002C2088627020C8620846006B40F201319C
:100750000843114908631148006820F003000F495D
:1007600008600F48006840F003000D4908600B481E
:100770000C38006840F0030008490C39086007484D
:10078000001D006820F0FF0011300449091D0860B9
:100790007047000018E60F4000C0004028450040A8
:1007A0002044004000BF0548806900F01000002888
:1007B000F9D102480068C0B27047000000C0004094
:1007C00000BF0449896901F020010029F9D10149DC
:1007D0000860704700C000401CB5012101A8FFF768
:1007E000CBFE01216846FFF7C7FEFFF757FEFFF774
:1007F00091FF00BF3A4800684FF47A72B0FBF2F103
:10080000481EB0F1807F00D31BE0481E4FF0E0226D
:10081000506150170722002804DB53071C0E314B90
:100820001C5406E053071D0E2F4B00F00F04241F2D
:100830001D5500BF00204FF0E0229061072010619D
:1008400000BF4CE004212948FFF768FE044621461A
:1008500001A8FFF794FE00212448FFF75FFE04463D
:1008600021466846FFF78BFE01A8FFF775FE0228B8
:100870000AD11F480078401C1D49087008460078BE
:10088000032801DC002008706846FFF765FEFFF7CB
:1008900089FF0246FFF794FF1548007820B1012830
:1008A00019D0022819D117E012480078002811DD6C
:1008B0001148007830280ADB0F480078392806DB19
:1008C0000D48007830384006000E0C4908700020B2
:1008D0000849087002E001E000E000BF00BFB1E796
:1008E0000800002000E400E018ED00E000500240A5
:1008F00002000020030000200C0000200100002066
:100900004FF04070E1EE100A704700002C09000023
:10091000000000200C000000A802000038090000C0
:100920000C0000206C020000C40200000302000062
:0809300000000000005A620201
:040000050000030DE7
:00000001FF
